{
  "contractName": "Fundraising",
  "abi": [
    {
      "anonymous": false,
      "inputs": [
        {
          "indexed": false,
          "internalType": "string",
          "name": "name",
          "type": "string"
        },
        {
          "indexed": false,
          "internalType": "uint256",
          "name": "raisedAmount",
          "type": "uint256"
        }
      ],
      "name": "Completed",
      "type": "event"
    },
    {
      "anonymous": false,
      "inputs": [
        {
          "indexed": false,
          "internalType": "string",
          "name": "name",
          "type": "string"
        },
        {
          "indexed": false,
          "internalType": "string",
          "name": "purpose",
          "type": "string"
        },
        {
          "indexed": false,
          "internalType": "address",
          "name": "creator",
          "type": "address"
        },
        {
          "indexed": false,
          "internalType": "address[]",
          "name": "beneficiaries",
          "type": "address[]"
        },
        {
          "indexed": false,
          "internalType": "uint256",
          "name": "goalAmount",
          "type": "uint256"
        },
        {
          "indexed": false,
          "internalType": "uint256",
          "name": "createdAt",
          "type": "uint256"
        },
        {
          "indexed": false,
          "internalType": "uint256",
          "name": "deadline",
          "type": "uint256"
        }
      ],
      "name": "Created",
      "type": "event"
    },
    {
      "inputs": [
        {
          "internalType": "uint256",
          "name": "",
          "type": "uint256"
        },
        {
          "internalType": "address",
          "name": "",
          "type": "address"
        }
      ],
      "name": "campaignContributions",
      "outputs": [
        {
          "internalType": "uint256",
          "name": "",
          "type": "uint256"
        }
      ],
      "stateMutability": "view",
      "type": "function",
      "constant": true
    },
    {
      "inputs": [
        {
          "internalType": "string",
          "name": "",
          "type": "string"
        }
      ],
      "name": "campaignNames",
      "outputs": [
        {
          "internalType": "bool",
          "name": "",
          "type": "bool"
        }
      ],
      "stateMutability": "view",
      "type": "function",
      "constant": true
    },
    {
      "inputs": [
        {
          "internalType": "uint256",
          "name": "",
          "type": "uint256"
        }
      ],
      "name": "campaigns",
      "outputs": [
        {
          "internalType": "string",
          "name": "name",
          "type": "string"
        },
        {
          "internalType": "string",
          "name": "purpose",
          "type": "string"
        },
        {
          "internalType": "address",
          "name": "creator",
          "type": "address"
        },
        {
          "internalType": "uint256",
          "name": "goalAmount",
          "type": "uint256"
        },
        {
          "internalType": "uint256",
          "name": "createdAt",
          "type": "uint256"
        },
        {
          "internalType": "uint256",
          "name": "deadline",
          "type": "uint256"
        },
        {
          "internalType": "uint256",
          "name": "raisedAmount",
          "type": "uint256"
        },
        {
          "internalType": "bool",
          "name": "completed",
          "type": "bool"
        }
      ],
      "stateMutability": "view",
      "type": "function",
      "constant": true
    },
    {
      "inputs": [],
      "name": "getCampaigns",
      "outputs": [
        {
          "components": [
            {
              "internalType": "string",
              "name": "name",
              "type": "string"
            },
            {
              "internalType": "string",
              "name": "purpose",
              "type": "string"
            },
            {
              "internalType": "address",
              "name": "creator",
              "type": "address"
            },
            {
              "internalType": "address[]",
              "name": "beneficiaries",
              "type": "address[]"
            },
            {
              "internalType": "uint256",
              "name": "goalAmount",
              "type": "uint256"
            },
            {
              "internalType": "uint256",
              "name": "createdAt",
              "type": "uint256"
            },
            {
              "internalType": "uint256",
              "name": "deadline",
              "type": "uint256"
            },
            {
              "internalType": "uint256",
              "name": "raisedAmount",
              "type": "uint256"
            },
            {
              "internalType": "bool",
              "name": "completed",
              "type": "bool"
            }
          ],
          "internalType": "struct Fundraising.Campaign[]",
          "name": "",
          "type": "tuple[]"
        }
      ],
      "stateMutability": "view",
      "type": "function",
      "constant": true
    },
    {
      "inputs": [],
      "name": "getCampaignsCount",
      "outputs": [
        {
          "internalType": "uint256",
          "name": "",
          "type": "uint256"
        }
      ],
      "stateMutability": "view",
      "type": "function",
      "constant": true
    },
    {
      "inputs": [
        {
          "internalType": "string",
          "name": "_name",
          "type": "string"
        }
      ],
      "name": "getIndexByName",
      "outputs": [
        {
          "internalType": "uint256",
          "name": "",
          "type": "uint256"
        }
      ],
      "stateMutability": "view",
      "type": "function",
      "constant": true
    },
    {
      "inputs": [
        {
          "internalType": "uint256",
          "name": "_index",
          "type": "uint256"
        }
      ],
      "name": "getMissingAmount",
      "outputs": [
        {
          "internalType": "uint256",
          "name": "",
          "type": "uint256"
        }
      ],
      "stateMutability": "view",
      "type": "function",
      "constant": true
    },
    {
      "inputs": [
        {
          "internalType": "uint256",
          "name": "_index",
          "type": "uint256"
        },
        {
          "internalType": "address",
          "name": "_contributor",
          "type": "address"
        }
      ],
      "name": "getCampaignContributions",
      "outputs": [
        {
          "internalType": "uint256",
          "name": "",
          "type": "uint256"
        }
      ],
      "stateMutability": "view",
      "type": "function",
      "constant": true
    },
    {
      "inputs": [
        {
          "internalType": "address",
          "name": "_contributor",
          "type": "address"
        }
      ],
      "name": "getTotalContributions",
      "outputs": [
        {
          "internalType": "uint256",
          "name": "",
          "type": "uint256"
        }
      ],
      "stateMutability": "view",
      "type": "function",
      "constant": true
    },
    {
      "inputs": [
        {
          "internalType": "string",
          "name": "_name",
          "type": "string"
        },
        {
          "internalType": "string",
          "name": "_purpose",
          "type": "string"
        },
        {
          "internalType": "address[]",
          "name": "_beneficiaries",
          "type": "address[]"
        },
        {
          "internalType": "uint256",
          "name": "_goalAmount",
          "type": "uint256"
        },
        {
          "internalType": "uint256",
          "name": "_deadline",
          "type": "uint256"
        }
      ],
      "name": "create",
      "outputs": [],
      "stateMutability": "nonpayable",
      "type": "function"
    },
    {
      "inputs": [
        {
          "internalType": "uint256",
          "name": "_index",
          "type": "uint256"
        }
      ],
      "name": "suspend",
      "outputs": [],
      "stateMutability": "nonpayable",
      "type": "function"
    },
    {
      "inputs": [
        {
          "internalType": "uint256",
          "name": "_index",
          "type": "uint256"
        }
      ],
      "name": "contribute",
      "outputs": [],
      "stateMutability": "payable",
      "type": "function",
      "payable": true
    },
    {
      "inputs": [
        {
          "internalType": "uint256",
          "name": "_index",
          "type": "uint256"
        }
      ],
      "name": "collect",
      "outputs": [],
      "stateMutability": "nonpayable",
      "type": "function"
    }
  ],
  "bytecode": "0x608060405234801561001057600080fd5b50612f43806100206000396000f3fe6080604052600436106100c25760003560e01c8063c0af85821161007f578063d026600111610059578063d026600114610272578063de6447e2146102af578063ebf5f34b146102ec578063f8d804fe14610329576100c2565b8063c0af8582146101f0578063c1cbbca71461022d578063ce3f865f14610249576100c2565b8063141961bc146100c757806322c599581461010b5780634b865846146101485780636645607d146101715780637e6253da1461019a578063a6b03633146101c5575b600080fd5b3480156100d357600080fd5b506100ee60048036038101906100e991906116a5565b610366565b6040516101029897969594939291906117cd565b60405180910390f35b34801561011757600080fd5b50610132600480360381019061012d9190611885565b6104fb565b60405161013f91906118c5565b60405180910390f35b34801561015457600080fd5b5061016f600480360381019061016a91906116a5565b610520565b005b34801561017d57600080fd5b5061019860048036038101906101939190611add565b6107ab565b005b3480156101a657600080fd5b506101af610c3d565b6040516101bc91906118c5565b60405180910390f35b3480156101d157600080fd5b506101da610c49565b6040516101e79190611e67565b60405180910390f35b3480156101fc57600080fd5b5061021760048036038101906102129190611e89565b610ef4565b60405161022491906118c5565b60405180910390f35b610247600480360381019061024291906116a5565b610fad565b005b34801561025557600080fd5b50610270600480360381019061026b91906116a5565b61118c565b005b34801561027e57600080fd5b5061029960048036038101906102949190611885565b611434565b6040516102a691906118c5565b60405180910390f35b3480156102bb57600080fd5b506102d660048036038101906102d19190611e89565b61148f565b6040516102e39190611ed2565b60405180910390f35b3480156102f857600080fd5b50610313600480360381019061030e91906116a5565b6114c5565b60405161032091906118c5565b60405180910390f35b34801561033557600080fd5b50610350600480360381019061034b9190611eed565b611522565b60405161035d91906118c5565b60405180910390f35b6000818154811061037657600080fd5b906000526020600020906009020160009150905080600001805461039990611f49565b80601f01602080910402602001604051908101604052809291908181526020018280546103c590611f49565b80156104125780601f106103e757610100808354040283529160200191610412565b820191906000526020600020905b8154815290600101906020018083116103f557829003601f168201915b50505050509080600101805461042790611f49565b80601f016020809104026020016040519081016040528092919081815260200182805461045390611f49565b80156104a05780601f10610475576101008083540402835291602001916104a0565b820191906000526020600020905b81548152906001019060200180831161048357829003601f168201915b5050505050908060020160009054906101000a900473ffffffffffffffffffffffffffffffffffffffff16908060040154908060050154908060060154908060070154908060080160009054906101000a900460ff16905088565b6002602052816000526040600020602052806000526040600020600091509150505481565b600080828154811061053557610534611f7a565b5b90600052602060002090600902019050806006015442108061055e575080600401548160070154105b61059d576040517f08c379a000000000000000000000000000000000000000000000000000000000815260040161059490611ff5565b60405180910390fd5b8060080160009054906101000a900460ff16156105ef576040517f08c379a00000000000000000000000000000000000000000000000000000000081526004016105e690612087565b60405180910390fd5b8060020160009054906101000a900473ffffffffffffffffffffffffffffffffffffffff1673ffffffffffffffffffffffffffffffffffffffff163373ffffffffffffffffffffffffffffffffffffffff1614610681576040517f08c379a000000000000000000000000000000000000000000000000000000000815260040161067890612119565b60405180910390fd5b60018160080160006101000a81548160ff0219169083151502179055506000816003018054905082600701546106b79190612197565b905060005b8260030180549050811015610765578260030181815481106106e1576106e0611f7a565b5b9060005260206000200160009054906101000a900473ffffffffffffffffffffffffffffffffffffffff1673ffffffffffffffffffffffffffffffffffffffff166108fc839081150290604051600060405180830381858888f19350505050158015610751573d6000803e3d6000fd5b50808061075d906121c8565b9150506106bc565b507fdf96998a9087b7471c0d2bc10f1602ee95bbac62a9599e835203e8c4492a5eef82600001836007015460405161079e9291906122a9565b60405180910390a1505050565b60008551116107ef576040517f08c379a00000000000000000000000000000000000000000000000000000000081526004016107e690612325565b60405180910390fd5b606485511115610834576040517f08c379a000000000000000000000000000000000000000000000000000000000815260040161082b90612391565b60405180910390fd5b60018560405161084491906123ed565b908152602001604051809103902060009054906101000a900460ff16156108a0576040517f08c379a000000000000000000000000000000000000000000000000000000000815260040161089790612450565b60405180910390fd5b60008451116108e4576040517f08c379a00000000000000000000000000000000000000000000000000000000081526004016108db906124bc565b60405180910390fd5b6103e88451111561092a576040517f08c379a00000000000000000000000000000000000000000000000000000000081526004016109219061254e565b60405180910390fd5b600083511161096e576040517f08c379a0000000000000000000000000000000000000000000000000000000008152600401610965906125e0565b60405180910390fd5b600082116109b1576040517f08c379a00000000000000000000000000000000000000000000000000000000081526004016109a89061264c565b60405180910390fd5b600066038d7ea4c68000836109c6919061266c565b14610a06576040517f08c379a00000000000000000000000000000000000000000000000000000000081526004016109fd906126e9565b60405180910390fd5b6301e1338042610a169190612709565b8110610a57576040517f08c379a0000000000000000000000000000000000000000000000000000000008152600401610a4e90612789565b60405180910390fd5b60006040518061012001604052808781526020018681526020013373ffffffffffffffffffffffffffffffffffffffff1681526020018581526020018481526020014281526020018381526020016000815260200160001515815250905060018087604051610ac691906123ed565b908152602001604051809103902060006101000a81548160ff02191690831515021790555060008190806001815401808255809150506001900390600052602060002090600902016000909190919091506000820151816000019081610b2c9190612940565b506020820151816001019081610b429190612940565b5060408201518160020160006101000a81548173ffffffffffffffffffffffffffffffffffffffff021916908373ffffffffffffffffffffffffffffffffffffffff1602179055506060820151816003019080519060200190610ba69291906115b4565b506080820151816004015560a0820151816005015560c0820151816006015560e082015181600701556101008201518160080160006101000a81548160ff02191690831515021790555050507f2c87094ce05c58a3ba8406719dcd0890f71526ba8c5efd71fc8a640cbfbca9fa86863387874288604051610c2d9796959493929190612a81565b60405180910390a1505050505050565b60008080549050905090565b60606000805480602002602001604051908101604052809291908181526020016000905b82821015610eeb578382906000526020600020906009020160405180610120016040529081600082018054610ca190611f49565b80601f0160208091040260200160405190810160405280929190818152602001828054610ccd90611f49565b8015610d1a5780601f10610cef57610100808354040283529160200191610d1a565b820191906000526020600020905b815481529060010190602001808311610cfd57829003601f168201915b50505050508152602001600182018054610d3390611f49565b80601f0160208091040260200160405190810160405280929190818152602001828054610d5f90611f49565b8015610dac5780601f10610d8157610100808354040283529160200191610dac565b820191906000526020600020905b815481529060010190602001808311610d8f57829003601f168201915b505050505081526020016002820160009054906101000a900473ffffffffffffffffffffffffffffffffffffffff1673ffffffffffffffffffffffffffffffffffffffff1673ffffffffffffffffffffffffffffffffffffffff16815260200160038201805480602002602001604051908101604052809291908181526020018280548015610e9057602002820191906000526020600020905b8160009054906101000a900473ffffffffffffffffffffffffffffffffffffffff1673ffffffffffffffffffffffffffffffffffffffff1681526020019060010190808311610e46575b50505050508152602001600482015481526020016005820154815260200160068201548152602001600782015481526020016008820160009054906101000a900460ff16151515158152505081526020019060010190610c6d565b50505050905090565b600080600090505b600080549050811015610f6c57828051906020012060008281548110610f2557610f24611f7a565b5b9060005260206000209060090201600001604051610f439190612ba8565b604051809103902003610f595780915050610fa8565b8080610f64906121c8565b915050610efc565b506040517f08c379a0000000000000000000000000000000000000000000000000000000008152600401610f9f90612c0b565b60405180910390fd5b919050565b60003411610ff0576040517f08c379a0000000000000000000000000000000000000000000000000000000008152600401610fe790612c77565b60405180910390fd5b600066038d7ea4c6800034611005919061266c565b14611045576040517f08c379a000000000000000000000000000000000000000000000000000000000815260040161103c90612d09565b60405180910390fd5b600080828154811061105a57611059611f7a565b5b90600052602060002090600902019050806006015442106110b0576040517f08c379a00000000000000000000000000000000000000000000000000000000081526004016110a790611ff5565b60405180910390fd5b80600401543482600701546110c59190612709565b1115611106576040517f08c379a00000000000000000000000000000000000000000000000000000000081526004016110fd90612d75565b60405180910390fd5b3481600701600082825461111a9190612709565b92505081905550346002600084815260200190815260200160002060003373ffffffffffffffffffffffffffffffffffffffff1673ffffffffffffffffffffffffffffffffffffffff16815260200190815260200160002060008282546111819190612709565b925050819055505050565b60008082815481106111a1576111a0611f7a565b5b906000526020600020906009020190508060060154421015806111cc57508060040154816007015410155b61120b576040517f08c379a000000000000000000000000000000000000000000000000000000000815260040161120290612de1565b60405180910390fd5b8060080160009054906101000a900460ff161561125d576040517f08c379a000000000000000000000000000000000000000000000000000000000815260040161125490612087565b60405180910390fd5b60008160070154116112a4576040517f08c379a000000000000000000000000000000000000000000000000000000000815260040161129b90612e4d565b60405180910390fd5b6000805b8260030180549050811015611346573373ffffffffffffffffffffffffffffffffffffffff168360030182815481106112e4576112e3611f7a565b5b9060005260206000200160009054906101000a900473ffffffffffffffffffffffffffffffffffffffff1673ffffffffffffffffffffffffffffffffffffffff16036113335760019150611346565b808061133e906121c8565b9150506112a8565b5080611387576040517f08c379a000000000000000000000000000000000000000000000000000000000815260040161137e90612eb9565b60405180910390fd5b60018260080160006101000a81548160ff0219169083151502179055503373ffffffffffffffffffffffffffffffffffffffff166108fc83600701549081150290604051600060405180830381858888f193505050501580156113ee573d6000803e3d6000fd5b507fdf96998a9087b7471c0d2bc10f1602ee95bbac62a9599e835203e8c4492a5eef8260000183600701546040516114279291906122a9565b60405180910390a1505050565b60006002600084815260200190815260200160002060008373ffffffffffffffffffffffffffffffffffffffff1673ffffffffffffffffffffffffffffffffffffffff16815260200190815260200160002054905092915050565b6001818051602081018201805184825260208301602085012081835280955050505050506000915054906101000a900460ff1681565b600080600083815481106114dc576114db611f7a565b5b90600052602060002090600902019050806004015481600701541061150557600091505061151d565b806007015481600401546115199190612ed9565b9150505b919050565b6000806000905060005b6000805490508110156115aa576002600082815260200190815260200160002060008573ffffffffffffffffffffffffffffffffffffffff1673ffffffffffffffffffffffffffffffffffffffff16815260200190815260200160002054826115959190612709565b915080806115a2906121c8565b91505061152c565b5080915050919050565b82805482825590600052602060002090810192821561162d579160200282015b8281111561162c5782518260006101000a81548173ffffffffffffffffffffffffffffffffffffffff021916908373ffffffffffffffffffffffffffffffffffffffff160217905550916020019190600101906115d4565b5b50905061163a919061163e565b5090565b5b8082111561165757600081600090555060010161163f565b5090565b6000604051905090565b600080fd5b600080fd5b6000819050919050565b6116828161166f565b811461168d57600080fd5b50565b60008135905061169f81611679565b92915050565b6000602082840312156116bb576116ba611665565b5b60006116c984828501611690565b91505092915050565b600081519050919050565b600082825260208201905092915050565b60005b8381101561170c5780820151818401526020810190506116f1565b60008484015250505050565b6000601f19601f8301169050919050565b6000611734826116d2565b61173e81856116dd565b935061174e8185602086016116ee565b61175781611718565b840191505092915050565b600073ffffffffffffffffffffffffffffffffffffffff82169050919050565b600061178d82611762565b9050919050565b61179d81611782565b82525050565b6117ac8161166f565b82525050565b60008115159050919050565b6117c7816117b2565b82525050565b60006101008201905081810360008301526117e8818b611729565b905081810360208301526117fc818a611729565b905061180b6040830189611794565b61181860608301886117a3565b61182560808301876117a3565b61183260a08301866117a3565b61183f60c08301856117a3565b61184c60e08301846117be565b9998505050505050505050565b61186281611782565b811461186d57600080fd5b50565b60008135905061187f81611859565b92915050565b6000806040838503121561189c5761189b611665565b5b60006118aa85828601611690565b92505060206118bb85828601611870565b9150509250929050565b60006020820190506118da60008301846117a3565b92915050565b600080fd5b600080fd5b7f4e487b7100000000000000000000000000000000000000000000000000000000600052604160045260246000fd5b61192282611718565b810181811067ffffffffffffffff82111715611941576119406118ea565b5b80604052505050565b600061195461165b565b90506119608282611919565b919050565b600067ffffffffffffffff8211156119805761197f6118ea565b5b61198982611718565b9050602081019050919050565b82818337600083830152505050565b60006119b86119b384611965565b61194a565b9050828152602081018484840111156119d4576119d36118e5565b5b6119df848285611996565b509392505050565b600082601f8301126119fc576119fb6118e0565b5b8135611a0c8482602086016119a5565b91505092915050565b600067ffffffffffffffff821115611a3057611a2f6118ea565b5b602082029050602081019050919050565b600080fd5b6000611a59611a5484611a15565b61194a565b90508083825260208201905060208402830185811115611a7c57611a7b611a41565b5b835b81811015611aa55780611a918882611870565b845260208401935050602081019050611a7e565b5050509392505050565b600082601f830112611ac457611ac36118e0565b5b8135611ad4848260208601611a46565b91505092915050565b600080600080600060a08688031215611af957611af8611665565b5b600086013567ffffffffffffffff811115611b1757611b1661166a565b5b611b23888289016119e7565b955050602086013567ffffffffffffffff811115611b4457611b4361166a565b5b611b50888289016119e7565b945050604086013567ffffffffffffffff811115611b7157611b7061166a565b5b611b7d88828901611aaf565b9350506060611b8e88828901611690565b9250506080611b9f88828901611690565b9150509295509295909350565b600081519050919050565b600082825260208201905092915050565b6000819050602082019050919050565b600082825260208201905092915050565b6000611bf4826116d2565b611bfe8185611bd8565b9350611c0e8185602086016116ee565b611c1781611718565b840191505092915050565b611c2b81611782565b82525050565b600081519050919050565b600082825260208201905092915050565b6000819050602082019050919050565b6000611c698383611c22565b60208301905092915050565b6000602082019050919050565b6000611c8d82611c31565b611c978185611c3c565b9350611ca283611c4d565b8060005b83811015611cd3578151611cba8882611c5d565b9750611cc583611c75565b925050600181019050611ca6565b5085935050505092915050565b611ce98161166f565b82525050565b611cf8816117b2565b82525050565b6000610120830160008301518482036000860152611d1c8282611be9565b91505060208301518482036020860152611d368282611be9565b9150506040830151611d4b6040860182611c22565b5060608301518482036060860152611d638282611c82565b9150506080830151611d786080860182611ce0565b5060a0830151611d8b60a0860182611ce0565b5060c0830151611d9e60c0860182611ce0565b5060e0830151611db160e0860182611ce0565b50610100830151611dc6610100860182611cef565b508091505092915050565b6000611ddd8383611cfe565b905092915050565b6000602082019050919050565b6000611dfd82611bac565b611e078185611bb7565b935083602082028501611e1985611bc8565b8060005b85811015611e555784840389528151611e368582611dd1565b9450611e4183611de5565b925060208a01995050600181019050611e1d565b50829750879550505050505092915050565b60006020820190508181036000830152611e818184611df2565b905092915050565b600060208284031215611e9f57611e9e611665565b5b600082013567ffffffffffffffff811115611ebd57611ebc61166a565b5b611ec9848285016119e7565b91505092915050565b6000602082019050611ee760008301846117be565b92915050565b600060208284031215611f0357611f02611665565b5b6000611f1184828501611870565b91505092915050565b7f4e487b7100000000000000000000000000000000000000000000000000000000600052602260045260246000fd5b60006002820490506001821680611f6157607f821691505b602082108103611f7457611f73611f1a565b5b50919050565b7f4e487b7100000000000000000000000000000000000000000000000000000000600052603260045260246000fd5b7f46756e6472616973696e67206973206f76657200000000000000000000000000600082015250565b6000611fdf6013836116dd565b9150611fea82611fa9565b602082019050919050565b6000602082019050818103600083015261200e81611fd2565b9050919050565b7f46756e6472616973696e672068617320616c7265616479206265656e20636f6d60008201527f706c657465640000000000000000000000000000000000000000000000000000602082015250565b60006120716026836116dd565b915061207c82612015565b604082019050919050565b600060208201905081810360008301526120a081612064565b9050919050565b7f4f6e6c79207468652063726561746f722063616e2073757370656e642074686560008201527f2063616d706169676e0000000000000000000000000000000000000000000000602082015250565b60006121036029836116dd565b915061210e826120a7565b604082019050919050565b60006020820190508181036000830152612132816120f6565b9050919050565b7f4e487b7100000000000000000000000000000000000000000000000000000000600052601260045260246000fd5b7f4e487b7100000000000000000000000000000000000000000000000000000000600052601160045260246000fd5b60006121a28261166f565b91506121ad8361166f565b9250826121bd576121bc612139565b5b828204905092915050565b60006121d38261166f565b91507fffffffffffffffffffffffffffffffffffffffffffffffffffffffffffffffff820361220557612204612168565b5b600182019050919050565b60008190508160005260206000209050919050565b6000815461223281611f49565b61223c81866116dd565b94506001821660008114612257576001811461226d576122a0565b60ff1983168652811515602002860193506122a0565b61227685612210565b60005b8381101561229857815481890152600182019150602081019050612279565b808801955050505b50505092915050565b600060408201905081810360008301526122c38185612225565b90506122d260208301846117a3565b9392505050565b7f4e616d65206d75737420626520676976656e0000000000000000000000000000600082015250565b600061230f6012836116dd565b915061231a826122d9565b602082019050919050565b6000602082019050818103600083015261233e81612302565b9050919050565b7f4e616d65206d757374206265203c3d2031303020636861726163746572730000600082015250565b600061237b601e836116dd565b915061238682612345565b602082019050919050565b600060208201905081810360008301526123aa8161236e565b9050919050565b600081905092915050565b60006123c7826116d2565b6123d181856123b1565b93506123e18185602086016116ee565b80840191505092915050565b60006123f982846123bc565b915081905092915050565b7f4e616d6520616c72656164792074616b656e0000000000000000000000000000600082015250565b600061243a6012836116dd565b915061244582612404565b602082019050919050565b600060208201905081810360008301526124698161242d565b9050919050565b7f507572706f7365206d75737420626520676976656e0000000000000000000000600082015250565b60006124a66015836116dd565b91506124b182612470565b602082019050919050565b600060208201905081810360008301526124d581612499565b9050919050565b7f507572706f7365206d757374206265203c3d203130303020636861726163746560008201527f7273000000000000000000000000000000000000000000000000000000000000602082015250565b60006125386022836116dd565b9150612543826124dc565b604082019050919050565b600060208201905081810360008301526125678161252b565b9050919050565b7f5468657265206d757374206265206174206c65617374206f6e652062656e656660008201527f6963696172790000000000000000000000000000000000000000000000000000602082015250565b60006125ca6026836116dd565b91506125d58261256e565b604082019050919050565b600060208201905081810360008301526125f9816125bd565b9050919050565b7f476f616c206d757374206265203e203000000000000000000000000000000000600082015250565b60006126366010836116dd565b915061264182612600565b602082019050919050565b6000602082019050818103600083015261266581612629565b9050919050565b60006126778261166f565b91506126828361166f565b92508261269257612691612139565b5b828206905092915050565b7f476f616c206d7573742062652061206d756c7469706c65206f6620302e303031600082015250565b60006126d36020836116dd565b91506126de8261269d565b602082019050919050565b60006020820190508181036000830152612702816126c6565b9050919050565b60006127148261166f565b915061271f8361166f565b925082820190508082111561273757612736612168565b5b92915050565b7f446561646c696e65206d7573742062652077697468696e203336352064617973600082015250565b60006127736020836116dd565b915061277e8261273d565b602082019050919050565b600060208201905081810360008301526127a281612766565b9050919050565b60006020601f8301049050919050565b600082821b905092915050565b6000600883026127f67fffffffffffffffffffffffffffffffffffffffffffffffffffffffffffffffff826127b9565b61280086836127b9565b95508019841693508086168417925050509392505050565b6000819050919050565b600061283d6128386128338461166f565b612818565b61166f565b9050919050565b6000819050919050565b61285783612822565b61286b61286382612844565b8484546127c6565b825550505050565b600090565b612880612873565b61288b81848461284e565b505050565b5b818110156128af576128a4600082612878565b600181019050612891565b5050565b601f8211156128f4576128c581612210565b6128ce846127a9565b810160208510156128dd578190505b6128f16128e9856127a9565b830182612890565b50505b505050565b600082821c905092915050565b6000612917600019846008026128f9565b1980831691505092915050565b60006129308383612906565b9150826002028217905092915050565b612949826116d2565b67ffffffffffffffff811115612962576129616118ea565b5b61296c8254611f49565b6129778282856128b3565b600060209050601f8311600181146129aa5760008415612998578287015190505b6129a28582612924565b865550612a0a565b601f1984166129b886612210565b60005b828110156129e0578489015182556001820191506020850194506020810190506129bb565b868310156129fd57848901516129f9601f891682612906565b8355505b6001600288020188555050505b505050505050565b600082825260208201905092915050565b6000612a2e82611c31565b612a388185612a12565b9350612a4383611c4d565b8060005b83811015612a74578151612a5b8882611c5d565b9750612a6683611c75565b925050600181019050612a47565b5085935050505092915050565b600060e0820190508181036000830152612a9b818a611729565b90508181036020830152612aaf8189611729565b9050612abe6040830188611794565b8181036060830152612ad08187612a23565b9050612adf60808301866117a3565b612aec60a08301856117a3565b612af960c08301846117a3565b98975050505050505050565b600081905092915050565b60008190508160005260206000209050919050565b60008154612b3281611f49565b612b3c8186612b05565b94506001821660008114612b575760018114612b6c57612b9f565b60ff1983168652811515820286019350612b9f565b612b7585612b10565b60005b83811015612b9757815481890152600182019150602081019050612b78565b838801955050505b50505092915050565b6000612bb48284612b25565b915081905092915050565b7f43616d706169676e206e6f7420666f756e640000000000000000000000000000600082015250565b6000612bf56012836116dd565b9150612c0082612bbf565b602082019050919050565b60006020820190508181036000830152612c2481612be8565b9050919050565b7f596f75206e65656420746f2073656e6420736f6d652065746865720000000000600082015250565b6000612c61601b836116dd565b9150612c6c82612c2b565b602082019050919050565b60006020820190508181036000830152612c9081612c54565b9050919050565b7f596f75206e65656420746f2073656e642061206d756c7469706c65206f66203060008201527f2e30303100000000000000000000000000000000000000000000000000000000602082015250565b6000612cf36024836116dd565b9150612cfe82612c97565b604082019050919050565b60006020820190508181036000830152612d2281612ce6565b9050919050565b7f54686520676f616c20686173206265656e207265616368656400000000000000600082015250565b6000612d5f6019836116dd565b9150612d6a82612d29565b602082019050919050565b60006020820190508181036000830152612d8e81612d52565b9050919050565b7f46756e6472616973696e67206973206e6f74206f766572207965740000000000600082015250565b6000612dcb601b836116dd565b9150612dd682612d95565b602082019050919050565b60006020820190508181036000830152612dfa81612dbe565b9050919050565b7f4e6f2066756e64732068617665206265656e2072616973656400000000000000600082015250565b6000612e376019836116dd565b9150612e4282612e01565b602082019050919050565b60006020820190508181036000830152612e6681612e2a565b9050919050565b7f596f7520617265206e6f7420616c6c6f77656420746f20776974686472617700600082015250565b6000612ea3601f836116dd565b9150612eae82612e6d565b602082019050919050565b60006020820190508181036000830152612ed281612e96565b9050919050565b6000612ee48261166f565b9150612eef8361166f565b9250828203905081811115612f0757612f06612168565b5b9291505056fea2646970667358221220343c13ceb2c44650d8822fb75dbe147ba324fb3e28f17377bab8b0408d3d0d0c64736f6c63430008110033",
  "immutableReferences": {},
  "source": "// SPDX-License-Identifier: MIT\npragma solidity ^0.8.0;\n\ncontract Fundraising {\n    event Created(string name, string purpose, address creator, address[] beneficiaries, uint goalAmount, uint createdAt, uint deadline);\n    event Completed(string name, uint raisedAmount); \n\n    struct Campaign {\n        string name;\n        string purpose;\n        address creator;\n        address[] beneficiaries;\n        uint goalAmount;\n        uint createdAt;\n        uint deadline;\n\n        uint raisedAmount;\n        bool completed;\n    }\n\n    Campaign[] public campaigns;\n    mapping(string => bool) public campaignNames;\n\n    function getCampaigns() public view returns (Campaign[] memory) {\n        return campaigns;\n    }\n\n    function getCampaignsCount() public view returns (uint) {\n        return campaigns.length;\n    }\n\n    function getIndexByName(string memory _name) public view returns (uint) {\n        for (uint i = 0; i < campaigns.length; i++) {\n            if (keccak256(bytes(campaigns[i].name)) == keccak256(bytes(_name))) {\n                return i;\n            }\n        }\n        revert(\"Campaign not found\");\n    }\n\n    function getMissingAmount(uint _index) public view returns (uint) {\n        Campaign storage campaign = campaigns[_index];\n        if (campaign.raisedAmount >= campaign.goalAmount) {\n            return 0;\n        }\n        return campaign.goalAmount - campaign.raisedAmount;\n    }\n\n    mapping(uint => mapping(address => uint)) public campaignContributions;\n\n    function getCampaignContributions(uint _index, address _contributor) public view returns (uint) {\n        return campaignContributions[_index][_contributor];\n    }\n\n    function getTotalContributions(address _contributor) public view returns (uint) {\n        uint total = 0;\n        for (uint i = 0; i < campaigns.length; i++) {\n            total += campaignContributions[i][_contributor];\n        }\n        return total;\n    }\n\n    function create(string memory _name, string memory _purpose, address[] memory _beneficiaries, uint _goalAmount, uint _deadline) public {\n        require(bytes(_name).length > 0, \"Name must be given\");\n        require(bytes(_name).length <= 100, \"Name must be <= 100 characters\");\n        require(!campaignNames[_name], \"Name already taken\");\n        require(bytes(_purpose).length > 0, \"Purpose must be given\");\n        require(bytes(_purpose).length <= 1000, \"Purpose must be <= 1000 characters\");\n        require(_beneficiaries.length > 0, \"There must be at least one beneficiary\");\n        require(_goalAmount > 0, \"Goal must be > 0\");\n        require(_goalAmount % 1000000000000000 == 0, \"Goal must be a multiple of 0.001\");\n        require(_deadline < block.timestamp + 365 days, \"Deadline must be within 365 days\");\n\n        Campaign memory newCampaign = Campaign(_name, _purpose, msg.sender, _beneficiaries, _goalAmount, block.timestamp, _deadline, 0, false);\n        campaignNames[_name] = true;\n        campaigns.push(newCampaign);\n        emit Created(_name, _purpose, msg.sender, _beneficiaries, _goalAmount, block.timestamp, _deadline);\n    }\n\n    function suspend(uint _index) public {\n        Campaign storage campaign = campaigns[_index];\n        require(block.timestamp < campaign.deadline || campaign.raisedAmount < campaign.goalAmount, \"Fundraising is over\");\n        require(!campaign.completed, \"Fundraising has already been completed\");\n        require(msg.sender == campaign.creator, \"Only the creator can suspend the campaign\");\n\n        campaign.completed = true;\n        uint amountPerBeneficiary = campaign.raisedAmount / campaign.beneficiaries.length;\n        for (uint i = 0; i < campaign.beneficiaries.length; i++) {\n            payable(campaign.beneficiaries[i]).transfer(amountPerBeneficiary);\n        }\n        emit Completed(campaign.name, campaign.raisedAmount);\n    }\n\n    function contribute(uint _index) public payable {\n        require(msg.value > 0, \"You need to send some ether\");\n        require(msg.value % 1000000000000000 == 0, \"You need to send a multiple of 0.001\");\n        \n        Campaign storage campaign = campaigns[_index];\n        require(block.timestamp < campaign.deadline, \"Fundraising is over\");\n        require(campaign.raisedAmount + msg.value <= campaign.goalAmount, \"The goal has been reached\");\n        \n        campaign.raisedAmount += msg.value;\n        campaignContributions[_index][msg.sender] += msg.value;\n    }\n\n    function collect(uint _index) public {\n        Campaign storage campaign = campaigns[_index];\n        require(block.timestamp >= campaign.deadline || campaign.raisedAmount >= campaign.goalAmount, \"Fundraising is not over yet\");\n        require(!campaign.completed, \"Fundraising has already been completed\");\n        require(campaign.raisedAmount > 0, \"No funds have been raised\");\n        bool isBeneficiary = false;\n        for (uint i = 0; i < campaign.beneficiaries.length; i++) {\n            if (campaign.beneficiaries[i] == msg.sender) {\n                isBeneficiary = true;\n                break;\n            }\n        }\n        require(isBeneficiary, \"You are not allowed to withdraw\");\n\n        campaign.completed = true;\n        payable(msg.sender).transfer(campaign.raisedAmount);\n        emit Completed(campaign.name, campaign.raisedAmount);\n    }\n}",
  "sourcePath": "/Users/ivo/Desktop/fundraising/contracts/Fundraising.sol",
  "compiler": {
    "name": "solc",
    "version": "0.8.17+commit.8df45f5f.Emscripten.clang"
  },
  "schemaVersion": "3.4.11",
  "updatedAt": "2022-12-16T10:37:58.263Z",
  "networkType": "ethereum",
  "devdoc": {
    "kind": "dev",
    "methods": {},
    "version": 1
  },
  "userdoc": {
    "kind": "user",
    "methods": {},
    "version": 1
  }
}